:020000040000fa
:080000000002040000000000f2
:020000040000fa
:10000800f2020000f2020000f2020000f202000018
:10001800f2020000f2020000f2020000f202000008
:10002800f2020000f2020000f20200009802000052
:10003800f2020000f2020000f2020000f2020000e8
:10004800f2020000f2020000f2020000f2020000d8
:10005800f2020000f2020000f2020000f2020000c8
:10006800f2020000f2020000f2020000f2020000b8
:10007800f2020000f2020000f2020000f2020000a8
:10008800f2020000f2020000f2020000f202000098
:10009800f2020000f2020000dc020000f20200009e
:1000a800f2020000f2020000f2020000f202000078
:1000b800f2020000f2020000f2020000f202000068
:1000c800f2020000f2020000f2020000f202000058
:1000d800f2020000f2020000f2020000f202000048
:1000e800f2020000f2020000f2020000f202000038
:1000f800f2020000f2020000f2020000f202000028
:10010800f2020000f2020000f2020000f202000017
:10011800f2020000f2020000f2020000f202000007
:10012800f2020000f2020000f2020000f2020000f7
:10013800f2020000f2020000f2020000f2020000e7
:10014800f2020000f2020000f2020000f2020000d7
:10015800f2020000f2020000f2020000f2020000c7
:10016800f2020000f2020000f2020000f2020000b7
:10017800f2020000f2020000f2020000f2020000a7
:10018800f2020000f2020000f2020000f202000097
:10019800f2020000f2020000f2020000f202000087
:1001a800f2020000f2020000f2020000f202000077
:1001b800f2020000f2020000f2020000f202000067
:1001c800f2020000f2020000f2020000f202000057
:1001d800f2020000f2020000f2020000f202000047
:1001e800f2020000f2020000f2020000f202000037
:0801f800f2020000f202000017
:020000040000fa
:10020800f2020000f2020000f2020000f202000016
:10021800f2020000f2020000f2020000f202000006
:10022800f2020000f2020000f20200009802000050
:10023800f2020000f2020000f2020000f2020000e6
:10024800f2020000f2020000f2020000f2020000d6
:10025800f2020000f2020000f2020000f2020000c6
:10026800f2020000f2020000f2020000f2020000b6
:10027800f2020000f2020000f2020000f2020000a6
:10028800f2020000f2020000f2020000f202000096
:10029800f2020000f2020000dc020000f20200009c
:1002a800f2020000f2020000f2020000f202000076
:1002b800f2020000f2020000f2020000f202000066
:1002c800f2020000f2020000f2020000f202000056
:1002d800f2020000f2020000f2020000f202000046
:1002e800f2020000f2020000f2020000f202000036
:1002f800f2020000f2020000f2020000f202000026
:10030800f2020000f2020000f2020000f202000015
:10031800f2020000f2020000f2020000f202000005
:10032800f2020000f2020000f2020000f2020000f5
:10033800f2020000f2020000f2020000f2020000e5
:10034800f2020000f2020000f2020000f2020000d5
:10035800f2020000f2020000f2020000f2020000c5
:10036800f2020000f2020000f2020000f2020000b5
:10037800f2020000f2020000f2020000f2020000a5
:10038800f2020000f2020000f2020000f202000095
:10039800f2020000f2020000f2020000f202000085
:1003a800f2020000f2020000f2020000f202000075
:1003b800f2020000f2020000f2020000f202000065
:1003c800f2020000f2020000f2020000f202000055
:1003d800f2020000f2020000f2020000f202000045
:1003e800f2020000f2020000f2020000f202000035
:0803f800f2020000f202000015
:020000040000fa
:10040000cfdf20000e7f22000e01880000000000d8
:100410000c000700204a2600010020001100070000
:10042000000020000000e000020032000000020096
:100430000000000070660200000000000040da00ca
:100440000000fe004440a900401320000000e0002e
:100450000300320000002000a00188004440a800f2
:100460000000060091018800800078000000eb0089
:1004700015003700e280400032a0b4009101ba00bc
:10048000e280400032a0b4009102ba00e280400055
:1004900032a0b4000002eb00472bde00f507b200eb
:1004a000602ce10004003a000059eb008301e900f0
:1004b000fdff3e00040037006128e100010032002a
:1004c0000082eb00040007001101ba000200e00006
:1004d000e8ff3a00000006003159ba008301e90044
:1004e0000c0032002159ba008301e90008003200f3
:1004f0000400e00003003a00e280400032a0b400b3
:10050000f5ff370011d9ba008301e900faff3a007c
:100510008100e800e180400032a0b4000000060045
:10052000bc5d040000000000985d040000000000b5
:10053000801f78003400f80000002000a00188002f
:100540000000fa00aacdbf00e04f500003003200c7
:10055000aacdbf000040e900aaedb700c4cdbf009e
:10056000e04f500003003200c4cdbf000040e9005e
:10057000c4edb700306e8000e00f50000300320081
:10058000306e80000000e900306e8800506e800000
:10059000e00f500003003200506e80000000e900c0
:1005a000506e88008460a9000080fa003400f900d1
:1005b0004f007800004006003400f800881f7800e3
:1005c00008002000a80188004f0478000000fa000d
:1005d00087c0a900e1a2a8000080fa003400f90059
:1005e000004006000040da000000fe001004b100e8
:1005f000070035009001b100040034007000b10024
:10060000030035009001b10001003c00100005001e
:10061000000005006900e100040035006d00e10004
:10062000030034000002b1000100320000000500a8
:10063000100005001004b100030035009001b10066
:1006400001003c001000050000000500800078005b
:100650001104b100030035009101b10001003c001c
:100660000050a00000000600800078001106b100d4
:10067000030035009101b10001003c000050a100d1
:10068000000006006022b800060220000000d00032
:100690008180d2000482d2008582d2000000a000b6
:1006a0000202520083825a0003003100020242001b
:1006b00083824a000000a1000603e900f3ff3a002c
:1006c00000000600889fbe008a9fbe003004be0066
:1006d0002005be000404440085844c0006054d003e
:1006e00087854d000898be000a90be000440e100d6
:1006f00005c8e10006d0e10007d8e10002003100a2
:10070000680040001008e8004f05be004f04be001e
:1007100000000600889fbe008a9fbe008c1f7800e4
:10072000000678003c04be002c05be000400540006
:1007300085805c0006015d0087815d00009ebe0033
:10074000029ebe00100020000440e10005c8e10048
:1007500006d0e10007d8e100010039000000eb00fd
:100760001c0e10004f0678004f05be004f04be005f
:10077000000006001200fa00889fbe008a9fbe009b
:100780008c9fbe000205be000004be00e4b79f00bf
:10079000f5b79f0086bf9f0097bf9f000000eb004a
:1007a000d0b79f00c0b79f00b0b79f00a0b79f0011
:1007b00090b79f0000067800fd032000dfb197008e
:1007c0004fb0970003814100bfb09700e08f510008
:1007d00004003d00290007007e805700b9ff070094
:1007e00003003700250007007e805700c9ff07007f
:1007f000dfb09700e08f50000700350014002000a4
:10080000050020006033b80008047200898472007b
:100810000a0573008b8573000c06e8008d0f5600e7
:10082000e6ff3400e08f500006003d006fb29700f5
:10083000ffb297000fbb97009fbb97007e805700c9
:10084000a0ff07005fa89700e00f500004003a00e7
:100850001fb49700afb497003fb59700cfb597008e
:100860000800be000a01be004f06be004f05be00d4
:100870004f04be000080fa0000000600cf01de0039
:1008800002817100b2b79f004f09de0000004000f6
:1008900000007100a0b79f000fb097004f01de006d
:1008a000818040008100710091b79f007faa97006e
:1008b000cf20de00000040000080700080b79f0065
:1008c0000800be000a01be004f18de00040242000c
:1008d00000027200f4af9f000804440089844c00b9
:1008e0000a054d008b854d004fb29700dfb297008f
:1008f0006fb39700ffb3970000000600881f7800d1
:1009000018002000881f78009aff07008f87e900f1
:100910004f04780000000600801feb0095ff0700e1
:100920008f87e90000000600889fbe008a9fbe00f6
:100930008c1f7800e00f5000e08f5800e00f590046
:10094000e08f59000f003d006044b8006055b800ca
:100950000000540081805c0002015d0083815d0025
:100960001c0020000820e10009a8e1000ab0e10015
:100970000bb8e1000d003d00190007000006eb0078
:100980000a0037000006eb00e00f5200e08f5a002b
:10099000e00f5b00e08f5b0004003d006044b800a6
:1009a0006055b8000e0007001c002000d3ff0700b0
:1009b000e00f5600060032006022b8006033b80035
:1009c0000000520081805a0002015b0083815b00bd
:1009d0004f0678004f05be004f04be000000060021
:1009e0000402540085825c0006035d0087835d007d
:1009f00000000600889fbe008a9fbe008c1f780002
:100a0000e00f5000e08f5800e00f5900e08f5900d0
:100a10000d003d006044b8006055b800000054006f
:100a200081805c0002015d0083815d001c0020006c
:100a30000820e10009a8e1000ab0e1000bb8e100dc
:100a40000d003d00080037000006eb00e00f5200eb
:100a5000e08f5a00e00f5b00e08f5b0006003d0076
:100a60006044b8006055b8000402540085825c0000
:100a700006035d0087835d00a7ff0700e00f5600b7
:100a8000060032006022b8006033b8000000520057
:100a900081805a0002015b0083815b004f06780071
:100aa0004f05be004f04be0000000600889fbe0038
:100ab00001047800b8009000628160008084eb003f
:100ac0003c003200810178000320b2001801900040
:100ad00002003a00e00f510036003a000190a000f9
:100ae0003104980080047800f90fb200e00f510043
:100af00002003a0028009000000c7800ea8f5400b1
:100b000006003a00010078000008b20003003a0035
:100b100088007800d0002000e4ff07001800900053
:100b2000d8009000810f50000b0032000000e80058
:100b3000100498001800780009487800000ce800bc
:100b400010c0b30021df200080487800ea8f5400f5
:100b500018003a0005003700880078000940780046
:100b6000ae020700800478001200370038009000c1
:100b70000010b2000f00320018019000a800900091
:100b8000480090007f30070098009000810f5000cf
:100b900004003200380090000003b30030049800d5
:100ba0008084eb000000eb00100498002800900007
:100bb000000c7800090078004f04be000000060019
:100bc0008001780002003700b159780004017800f4
:100bd0000202e900e00f5100fbff3a0000000600ae
:100be0008001780002003700815978000401780004
:100bf0000202e900e00f5100fbff3a00000006008e
:100c0000800078000041eb00b14f1100fdff3a0079
:100c10000080ea0000804000000006000d00370060
:100c200010417800e04f510002003200914f510016
:100c3000050032000281fb00914078000180fb003a
:100c400000005100000006000000e8008100e800fc
:100c5000030178008201e900e00f5100f0ff3a0043
:100c600002007800000006008001780006003700ce
:100c70000201e9001142780084597800e04f5200e7
:100c8000060032008100e800e00f5100f8ff3a0052
:100c9000020037008059eb00010178008200e90072
:100ca000e00f5100fbff3a00000006000c00fa00c4
:100cb000a0bf9f00c0bf9f00d1ff0700b0bf9f0033
:100cc000f0bf9f00100c2000d0bf9f007481570020
:100cd000efb097006c805700340007000080fa00e6
:100ce00000000600881f7800c06f8000ca0107005e
:100cf000000478000800780046fe0700e00f50006e
:100d0000f9ff3a00e10f440003003200c16f800098
:100d100008007800810207004f04780000000600f8
:100d2000889fbe008a1f7800000478008144780004
:100d30000205780000fd2f0008004000e90f500078
:100d400002003e0000047800100037000800780020
:100d500038fe0700e00f500005003200e00f55009c
:100d6000030032000800780038fe07000004780015
:100d7000080078001dfe07008000780000c0eb002e
:100d8000e08f5000060032007805b1008984fb0036
:100d900000c0eb00890f540001003d0008407800be
:100da0004f0578004f04be0000000600f2874700a0
:100db000889fbe008a9fbe008c9fbe008e1f780059
:100dc00080017800e1b79f00d2b79f00c36f880011
:100dd0000000eb00b0b79f0080407800e1ef9f007b
:100de0005d0137006fb097000000e800e0b79f009a
:100df0000885fb000a00780006fe0700e00f50009f
:100e000002003200b7ff07005301370051c2b300a0
:100e1000814f540041013a0021c0b30000477800df
:100e20006fb297000145780084067800040037000f
:100e30002ac0b300010037004ac0b3000d02780099
:100e40003d44780081c6b300814f5400f8ff320062
:100e500015003e00f0c05000814f54002f003200ba
:100e60000a003e00ecc05000814f540027003200c1
:100e700086003e00e04f5400bb003200a1c2b30028
:100e8000814f540081003a001e00370031c6b30084
:100e9000814f5400600032008140e800814f5400cf
:100ea0007a003a008d00370031c7b300814f5400fb
:100eb0002100320007003e00e7c05000814f54007f
:100ec00012003200e3c04000814f54006f003a002e
:100ed0008700370051c7b300814f54007f003200b4
:100ee000e3c04000814f540068003a00cae79f0009
:100ef00000467800edb79f000000eb00b0b79f0000
:100f00000b0037000e47e800ccff3700e24f5500da
:100f1000c9ff32008ac0b300c8ff3700cae79f008c
:100f200000467800edb79f0011002000b1b79f0088
:100f30000dc1b3007200370000467800edb79f0086
:100f400068ff0700e04f570004003a005fb09700c9
:100f5000c0007800d0b79f00c1b79f00c06f80006d
:100f60002d01070000047800e10f440014003a004e
:100f700008007800f4003700efb097001100fb0084
:100f8000800f540005003a000a007800c0b79f00a7
:100f90008100e800e1b79f0017003700e04f5700dd
:100fa00001003a00085d78000c46e9000d003200af
:100fb000c06f8000180107000004780001003700ae
:100fc0004fb597000800e800e10f50000800360018
:100fd000080078008ffd0700e00f5000e6ff3200a8
:100fe000030037000a007800c0b79f0002003700f6
:100ff0008a007800c1b79f00e04f5700d6003a0042
:101000006fe897000040e800e0ef9f00cfb0970046
:101010008e487800d000370000467800edb79f007a
:10102000e04f570008003a006fe897000040e800e2
:10103000e0ef9f00dfb0970041007800d1b79f003c
:1010400000047800010037004fb49700c06f8000a3
:10105000f100070080007800e18f400002003a00b4
:1010600001007800b8003700e04f570001003a0057
:10107000015c78000c46e9004240a900f3ff3c0007
:1010800008007800c0b79f00b30037000884fb0059
:1010900000fd2f0008004000e90f500009003e004d
:1010a00004007800b8000700010037008d06e80052
:1010b0009d00fb000103b100e98f5000fbff3600eb
:1010c0005eff3700edb79f00c06f8000d2000700c1
:1010d000800f540097003a009f003700cae79f0036
:1010e00000467800edb79f00adc0b30004003700a4
:1010f000cae79f0000467800edb79f008dc0b3009f
:10110000f8fe0700c06f8000c3000700800278006f
:101110000040eb00b0e79f00d3022000838f520015
:1011200005003a00c06f8000bb0007008002780015
:1011300011c0b300b1e79f003fb197008d40780028
:101140000500780085bf9f00f5fe0700804178000c
:101150008fba9700e1cf41000e003a00c16f8000c6
:10116000050078006d0107006fe89700e04f500020
:1011700002003200804078007c003700c06f8000a1
:101180003000900070006000790032000080eb00b9
:101190007700370003032000838f52001b003a00c2
:1011a000c06f800085bf9f009b0007008001780012
:1011b000840720008fba9700848f510004003a0002
:1011c0003fb09700e00f5000070032000a003700e0
:1011d00084052000848f510007003a00bfb09700bb
:1011e000e08f500004003200c06f80008a000700ca
:1011f0008002780005003700c16f8000030078008e
:1012000085bf9f00450107008fba97006044b80072
:101210000d85fb000b0020000e407800a0e79f002a
:10122000050778000a01be000800be00b9010700ea
:101230000004be003fb197008d4078000e0078009a
:10124000b7fe0700004278000482fb000500200082
:101250000404440085844c000c46e9000a00320076
:10126000c06f80006c000700000778003fb1970056
:101270008d4078000e007800a9fe070080417800bc
:10128000e1cf4100e7ff3a008e0278002fe7970098
:101290003fb197008d4078000500780085bf9f0022
:1012a0009ffe0700804078008fba9700e1cf400092
:1012b00003003a00c16f80000500780017010700a5
:1012c000bfe09700e0cf500002003200600414003d
:1012d000e0841c00e04f57001f003a006fe89700c1
:1012e0000040e800e0ef9f00dfb097000180e900d8
:1012f000cfe09700e4cf500004003a00d0b79f0041
:10130000900078008888be0013003700d0b79f0097
:1013100090007800880878000f003700c06f8000c8
:101320003d00070080007800810f55000a00320060
:1013300001007800e10f400003003200c16f80001f
:10134000f600070008003700efe89700e0cf5000f4
:1013500006003a00060037006fb09700104478008e
:10136000e04f54009ffe3a00efe897000180fb0039
:101370004f0778004f06be004f05be004f04be0069
:101380002f01b1000000060002c2b30001003700c7
:101390000000e8009040780082cf5000fcff32004f
:1013a000e9cf5000faff3200d2c2b30082cf500022
:1013b00003003a000000e80012c0b3000500370047
:1013c0000041eb00b3c2b30083cf500001003a00ec
:1013d0000000e8008000eb00050037006a0ab90051
:1013e00001fd2f0084804000838040000000e80061
:1013f0009001fb0004fd2f0003024200e90f5200a0
:10140000f6ff3600e04f5100010032008100ea0093
:101410000100780000000600881f780000047800b2
:1014200038009000f1006000e18f500006003a00a3
:10143000800078000120b20008003200980090007f
:10144000e08f500005003200380090000040a000fe
:10145000300498000080eb00200037000090a100cd
:101460003004980018009000e00f5000070034008e
:101470000000e900100498009800780011417800fd
:101480000280fb00010ce8000500370038009000e6
:101490000004b200ecff3a000800780011000700d9
:1014a000b80090000108b2000c003a00fa0f50009a
:1014b00008003a0028009000e00f5000e2ff3200e0
:1014c000180090000000e80010049800180ce900d3
:1014d000ddff3700ed0f5000e2ff32004f047800cf
:1014e000000006000200fa00889fbe008a9fbe002e
:1014f000000478000000eb0010049800b800900091
:10150000e18060000080eb004000320020df20001e
:101510008040eb0090cf10000f003200c9dc2000ab
:101520002b1020004a0220000905450039009000d8
:101530002010b2008b0f500002003a000900780022
:1015400095000700ec8444008a8f5400f7ff3a00ae
:1015500020df20000048eb0058019000e00f510010
:101560000e003a001204980012002000ea80570092
:1015700048009000b4000700e10f500003003a005b
:101580006ff197000280fb002000370038009000c8
:101590000040a0003004980013003700a80090001d
:1015a00048009000a800070010049800e00f5000c9
:1015b00003003200e10f40000d003a000300370045
:1015c000380090000040a000020037003800900072
:1015d0000003b3003004980028009000000c78004d
:1015e0000000eb00100498000080eb0007003700bb
:1015f000a8009000010c78000000e9001004980099
:10160000114178000280fb00010ce8004f05be008c
:101610004f04be000080fa00000006000200fa003d
:10162000889fbe00a0ff9f00010478003800900052
:10163000800078000104b20033003a00e20060004c
:1016400005003a000003b30030049800110498002c
:101650000080eb002e003700d8049000e08f54008b
:1016600006003a0012002000e68057004800900073
:10167000c42d07001904980023003700a80090002b
:10168000e08f500008003a0051df2000210498004c
:10169000010c7800210020005104980011049800ea
:1016a0000030a0003004980018019000a8009000bd
:1016b00048009000b32d0700280090008080eb00c8
:1016c00011049800aff8970001487800000ce8007a
:1016d0002ff89700ea4f50000b003a0038009000b6
:1016e0000010b2000800320018019000a80090001d
:1016f00048009000a32d07000000eb0010049800a4
:10170000a8009000010c7800aff897000100fb00e2
:101710004f04be000080fa0000000600e10f400008
:101720001c003200310190001220b200e10f510084
:1017300015003a0021029000e00f52001200320022
:1017400011019000d1019000830f51001000320070
:1017500091017800848f510002003a008308e8006c
:10176000020037000201e800920098001101e90030
:1017700082087800b10090000104b20005003a0030
:1017800000497800000006000080eb000000060021
:101790000080eb0000000600881f7800000478003d
:1017a00038009000800078001120b200e18f5000d6
:1017b00005003a008000eb0011049800a80090009a
:1017c000010c780019003700000178002220b200d7
:1017d0000000eb0021202000810f510016003a008c
:1017e000a8009000808f5000130032001801900074
:1017f000800f51001000320048009000612d07005a
:1018000098009000810f50000300320038009000d3
:101810000003b300300498000000eb0010049800af
:1018200028009000000c7800380090000002b20000
:10183000010032000080eb004f0478000000060039
:1018400000c0da00000006000a00fa00e00f5000b5
:1018500026003a00d06f8000e10f500006003200f1
:101860008023200065232000242320000323200060
:10187000e00f500004003a00802220006522200082
:101880002422200003222000060028009303630086
:1018900002003a00070878009309730002007800fc
:1018a0000c0037008301e900940378006183630032
:1018b00002003a00e08f5100faff3a00140378006a
:1018c000e101630007003200950178008358780039
:1018d0000000e900e00f500002003200030a20007f
:1018e000f1ff3700000051000800370023002000fe
:1018f000b3bf9f00c0bf9f00d1bf9f00e2bf9f004a
:101900006a805700ceff07006fb897000080fa008a
:1019100000000600020ab900001bb9000200b8006e
:0c1920008100420081004300000006002e
:020000040000fa
:10192c000a0d00004f4b00000d0a0000000a0000d9
:10193c000d530000594e0000544100005820000087
:10194c0045520000524f0000520d00000a000000ea
:10195c000a0d00004e4f0000204300004d440000d3
:10196c000d0a0000000a00000d560000414c00005a
:10197c005545000020450000525200004f52000017
:10198c000d0a00000052000045540000204f0000da
:10199c004b0d00000a0000000a0d0000554e00001f
:1019ac00484100004e4400004c450000442000001b
:1019bc0045520000524f0000520d00000a0000007a
:1019cc00686500006c700000000a00000d43000008
:1019dc004d4400003a200000686500006c70000067
:1019ec002c64000061740000650d00000a0000000a
:1019fc006461000074650000200000002564000094
:101a0c002d250000642d0000256400002025000019
:101a1c00643a0000256400003a25000064000000d0
:101a2c0000950000000000000000000001f900001b
:101a3c000000000000000000088700000400000007
:101a4c000000000009af00000000000001000000d1
:101a5c000a1b000000000000010000000cc3000085
:101a6c0001000000000000000daf000002000000ab
:101a7c000000000010ff000000000000000000004b
:101a8c0011ff0000000000000100000012ff000028
:101a9c00000000000100000018ff00000000000022
:101aac000100000019ff0000000000000100000010
:101abc0020ff0000000000000000000021ff0000db
:101acc00000000000000000026df00000100000004
:101adc000000000037730000000000000000000050
:101aec003a25000004000000000000003b25000027
:101afc00000000000000000029ff000004000000ae
:101b0c000000000017ff00000000000000000000b3
:101b1c0061000000746d0000702e00006c6f0000fe
:101b2c0067000000257800002d250000782d0000ae
:101b3c002578000020250000783a00002578000068
:101b4c003a2500007820000020200000202500000d
:101b5c00642000000d0a000000000000303100007d
:101b6c0032330000343500003637000038390000bd
:101b7c006162000063640000656600000000000004
:081b8c003230000000000000ef
:020000040000fa
:101b94000200fa000000eb00000f78000500370097
:101ba40060c320009e00400010c0b300804878004d
:101bb4001e0fe8001e007800e00f5000f8ff34000c
:101bc4000040eb00a6edb7000040eb009cedb70031
:101bd4000080eb008080eb00c06c8800d16c880032
:101be4000080eb008080eb00006d8800116d8800a0
:101bf4009921070000cf200021020700e04f500088
:101c040004003a000040eb0046ecb700100020004e
:101c1400010037000000eb000080fa00000006001d
:101c24001400fa00881f780070079800010f9800cc
:101c340022579800335798007e009000401090007f
:101c440060079800b0002000000f78007e0090002c
:101c540080189000701090007e0190001019980078
:101c6400211998000e08900060119000020078007d
:101c74000080ea008180ea00200798006e0090004e
:101c8400e00f50000a003a006c00470012c0b30095
:101c9400800078007e009000b4070700e00f500039
:101ca40010003a00b0012000000f78000d0037004a
:101cb4006e0090006f006000e00f500009003200d9
:101cc4006c00470012c0b300800078007e009000d2
:101cd400a6070700e00f500002003a00b001200000
:101ce400000f78001e007800fb0f5000cd0032007a
:101cf4001e007800e00f5000c70032006c0047005f
:101d0400800078007e0090001d0c0700604798005a
:101d14006e409000e24f5000c10032006e409000cf
:101d2400e04f5000a9003a007e009000e0109000bf
:101d340041079800ce009000f0032000008060006e
:101d4400400798003e5090000080fb00e00f5000d8
:101d540003003200e10f50002c003200aa003700cb
:101d64004e009000e80f50009e0032000000eb008f
:101d7400000f7800d0c6b300204f98000040eb005d
:101d8400204798001d0037002e4090000080fb0083
:101d9400fe0090007c00400061407800204f9800d5
:101da4002e4090000080fb008e0890007c004000d4
:101db40061407800304f98002e4890000080fb006e
:101dc40021fa0700000478003e4890000080fb00e0
:101dd4001dfa0700800f540005003200b0002000f7
:101de400000f7800000000000000000086003700ab
:101df4002e4090000040e800204798002e409000bc
:101e0400ea4f5000e0ff36007f003700ce0090001c
:101e14002e00900000806000e00f500073003a0034
:101e24004e009000ef0f5000720032000000eb00f3
:101e3400000f7800d0c6b300204f98000e08900021
:101e4400c0589000a0c2b30080cf50002b003200d5
:101e54000040eb0020479800230037002e409000fc
:101e64000080fb00fe0090007c0040006140780090
:101e7400204f98002e4090000080fb008e089000b8
:101e84007c00400061407800304f9800be489000cc
:101e9400a0c2b30080cf500017003200be489000ab
:101ea400f0c3b30080cf50000c0032002e489000e5
:101eb4000080fb00e4f90700000478003e4890002d
:101ec4000080fb00e0f90700800f5400030032009b
:101ed400b0002000000f7800080037002e4090006a
:101ee4000040e800204798002e409000e74f500043
:101ef400daff360001003700000000000e089000f1
:101f0400c0609000a0c2b30080cf50003b003200fc
:101f14001e007800e00f50003a003a0080c0b30081
:101f240020479800240037002e4090000080fb00da
:101f3400fe0090007c00400061407800204f980033
:101f44002e4090000080fb008e0890007c00400032
:101f540061407800304f9800be489000a0c2b300a2
:101f640080cf500001003a0017003700be489000af
:101f7400f0c3b30080cf50000c0032002e48900014
:101f84000080fb00b0f90700000478003e48900090
:101f94000080fb00acf90700800f540003003200fe
:101fa400b0002000000f7800070037002e4090009a
:101fb4000040e800204798002e409000ea4f50006f
:101fc400d9ff3600100037000f0037002e50900064
:101fd400e04f50000c003a000000eb00000f7800c6
:101fe400090037000000000007003700000000006f
:101ff4000500370000000000030037000000000067
:1020040001003700000000006e0090000000e800ae
:102014006007980036ff3700000000000100370019
:10202400000000001e0078004f0478000080fa00d1
:10203400000006001000fa0050079800610798009d
:10204400624f98000000eb00000f78005e009000e3
:1020540090007800110798001e00900030609000f6
:10206400e04f500003003a0070002000000f780099
:102074008e0037005e009000801890007010900071
:102084005e01900010199800211998006e009000cc
:1020940010007800e00f500009003a0012c0b300ad
:1020a400ee0090005e009000b0060700e00f5000c4
:1020b40010003a00b0012000000f78000d00370036
:1020c4006e009000100078006f006000e00f500078
:1020d4000800320012c0b300ee0090005e009000d1
:1020e400a2060700e00f500002003a00b0012000f1
:1020f400000f7800ee0090005e009000200b0700b7
:10210400404798004e409000e04f500003003200da
:10211400b0002000000f7800640037005e019000da
:102124006000b80070019800010998005e009000fa
:10213400a0009000100090005e0190003001980013
:10214400410198005e0090008000eb00510098006f
:102154005e0090008000eb00610098004e4090000b
:10216400e14f500003003a00b0002000000f780057
:102174002e0037005e009000c000900030009000f8
:102184000001be001e009000661007003007980092
:1021940041079800a4cdbf00e04f50000500320075
:1021a4007b120700e04f5000020032009000200034
:1021b4003f0037005e019000f26c8800026d8000e1
:1021c400136d80003e009000ce009000800f5100ff
:1021d400818f5900150032000040eb00a6edb700d6
:1021e4001e009000104178008280fb001040900097
:1021f4000080fb004800dd00010070000001780051
:102204003e009000ce009000b2200700e04f500046
:1022140002003a0080002000000f78003e00900089
:10222400ce009000006d8800116d88005e00900063
:1022340030099000b1ff2f0081006100310898003f
:10224400ee48900070c7b30080cf50000400320005
:10225400ee48900010c6b30080cf50000a003a0048
:102264005e009000b00890000100a00031089800c2
:102274005e00900030099000d1ff2f0081006100c2
:1022840031089800090037005e0090003009900082
:10229400e1ff2f0081006100310898005e0090008a
:1022a400b00890000110a000310898001e007800ca
:1022b4000080fa00000006001a00fa00200f9800bf
:1022c400320f9800430f98000040eb00004f980035
:1022d4002e08900090007800510798005e0090004e
:1022e400206090000080fb00e10f50000a003200e3
:1022f400e30f500010003a0080ff2f00f1ff200090
:102304002007980031079800f0ff2f00f1ff20000c
:10231400008fbe001000370080ff20000100200065
:102324002007980031079800f0ff2f0001002000db
:10233400008fbe000800370080ff2f00010020003e
:102344002007980031079800f0ff2f0001002000bb
:10235400008fbe00000000002e08900030019000a5
:10236400c001900062079800730798006e01900006
:10237400fe0190005e00900017160700000f980001
:10238400110f98000e0890009e089000be0f500098
:10239400ae8f580003003a0080c0b300004f98008d
:1023a400210037005e019000c25190000382fb00bf
:1023b400d25190008381fb00c819dd008481710033
:1023c40003007800e25190008381fb007251900079
:1023d4000281fb004811dd000301710082007800d6
:1023e40062014000e08148000e0890009e089000c1
:1023f400800f5100818f590002003e00a0c0b3003d
:10240400004f98000e0990009e0990002e00900045
:10241400be009000800f5100818f590002003900e6
:10242400c0c3b300004f98002e0890000e0990001e
:102434009e09900032009800430098003e089000e6
:10244400ce08900061005000e0805800300f9800e2
:10245400410f98003e089000ce089000e00f500015
:10246400e08f5800030032000e489000e04f500007
:10247400b9ff32000e4890000080fa000000060008
:102484000600fa00200798000040eb00004f780097
:10249400ae0090000040eb00b06098002e00900069
:1024a40002802000f10f200081016100904078003b
:1024b400e0c0600083c07000014878004811de006d
:1024c40090409000e0c0600082c07000114098000d
:1024d400e7220700100798001e00900010407800c3
:1024e400e04f50000500320060c0b300004f780098
:1024f40060c0b30046ecb7003a0037001e009000fd
:10250400900078000010200000806000e00f500070
:10251400250032001e009000100090006101b800f8
:102524002e009000f10f20000102610080589000fd
:10253400e0c0600084c07000015898004812de00ba
:1025440090589000e0c0600084c07000115898005a
:10255400f10f200001826100a0589000e0c06000eb
:1025640084c07000215898004819de00b0589000cb
:10257400e0c0600082c07000315898001e009000d6
:102584009000900000202000808f5000060036004c
:1025940010c2b300004f780010c2b30046ecb7007d
:1025a4001e407800100037002e0090001000070035
:1025b400004f78001e407800e04f500009003a00b8
:1025c4002e00900042010700004f78001e40780062
:1025d400e04f500003003a00ae00900010c0b3007a
:1025e400b06098001e4078000080fa0000000600e9
:1025f4000c00fa00500798000040eb00004f7800f0
:102604005e009000104178008280fb001040900032
:102614000080fb004800dd0001007000000178002c
:102624006000b800ab1f0700e14f50000500320006
:1026340080c0b300004f780080c0b30046ecb70000
:10264400200137005e009000104178008280fb007a
:10265400104090000080fb004800dd000100700085
:10266400200798002e009000e0f8930050c5b300b6
:1026740080cf5000a1003a002e009000f0f89300a3
:10268400a0cab30080cf50009c003a005e009000c6
:10269400104178008280fb00104090000080fb0015
:1026a4004800dd000100700061032000d70e070020
:1026b40061c4b300814f500042003a005e009000b4
:1026c400104178008280fb00104090000080fb00e5
:1026d4004800dd000100700071032000cb0e0700ec
:1026e40011c4b300814f500036003a005e009000e0
:1026f400104178008280fb00104090000080fb00b5
:102704004800dd000100700081032000bf0e0700b7
:1027140041c5b300814f50002a003a005e0090008a
:10272400104178008280fb00104090000080fb0084
:102734004800dd000100700091032000b30e070083
:1027440011c3b300814f50001e003a005e00900098
:10275400104178008280fb00104090000080fb0054
:102764004800dd000100700061022000a70e070090
:1027740091c2b300814f500012003a005e009000f5
:10278400a0409000e0c0600021409800b04090005c
:10279400e0c0600031409800c0409000e0c060009c
:1027a40041409800d0409000e0c060005140980043
:1027b400de00900020c0b300a06098000040eb0051
:1027c400c10037005e009000104178008280fb0059
:1027d400104090000080fb004800dd000100700004
:1027e40021052000890e070061c4b300814f500009
:1027f40042003a005e009000104178008280fb00a5
:10280400104090000080fb004800dd0001007000d3
:10281400310520007d0e070011c4b300814f500024
:1028240036003a005e009000104178008280fb0080
:10283400104090000080fb004800dd0001007000a3
:1028440041052000710e070041c5b300814f5000bf
:102854002a003a005e009000104178008280fb005c
:10286400104090000080fb004800dd000100700073
:1028740051052000650e070031c3b300814f50009d
:102884001e003a005e009000104178008280fb0038
:10289400104090000080fb004800dd000100700043
:1028a40021042000590e070091c2b300814f50004b
:1028b40012003a005e009000a0409000e0c060006a
:1028c40021409800b0409000e0c060003140980082
:1028d400c0409000e0c0600041409800d0409000ab
:1028e400e0c0600051409800de00900030c0b300aa
:1028f400a06098000040eb00730037005e00900079
:10290400104178008280fb00104090000080fb00a2
:102914004800dd0001007000300798003e00900080
:10292400e0f8930050c5b30080cf500005003a0092
:102934003e009000f0f89300a0cab30080cf50008e
:102944000500320040c0b30046ecb70040c0b300fd
:10295400004f78005b0037003e009000e01bb000a1
:10296400100798000040eb00104798004e00370015
:102974001e009000804890000182fb009048900067
:102984008180fb00c808dd008480700001017800ac
:10299400a04890008180fb00304890000080fb003c
:1029a4004800dd0001007000800178005e009000a6
:1029b400f10f200001026100a0409000e0c060001f
:1029c40084c07000214098004812de00b04090009e
:1029d400e0c0600084c0700031409800f10f200016
:1029e40001826100c0409000e0c0600084c07000bb
:1029f400414098004819de00d0409000e0c06000db
:102a040082c07000514098001e009000c0409000a9
:102a1400014f98000e4890000080fb00ee0f50001c
:102a24001b003e00110020000008dd000105240009
:102a340081006000e08f50000b003a00018021000b
:102a440081006000e08f50000c003a0062006000da
:102a5400e00f50000e003200de00900010c0b30002
:102a6400a06098000a003700de00900020c0b30088
:102a7400a06098001e40780013003700de0090002c
:102a840030c0b300a06098001e4078000e003700ec
:102a94001e00900070004000100798001e40900037
:102aa4000040e800104798001e409000e34f50009b
:102ab400afff360050c0b30046ecb70050c0b300bf
:102ac400004f78001e4078000080fa0000000600e5
:102ad4001a00fa00889fbe00400f98000040eb00e7
:102ae400404798000000eb00300798000000eb001e
:102af400400798004e089000104178008280fb0047
:102b0400104090000080fb004800dd0001007000d0
:102b1400000278004e099000a24190008382fb00dd
:102b2400b24190008381fb00c819dd0085817100ea
:102b340003007800c24190008381fb005241900061
:102b44000281fb004811dd0003017100820078005e
:102b5400040178005f1e0700e14f500003003200bb
:102b640080c0b30040479800f90237004e08900037
:102b7400904178008380fb00104090000080fb00af
:102b84004800dd0001007000500798005e009000ce
:102b9400e0f8930050c5b30080cf500005003a0020
:102ba4005e009000f0f89300a0cab30080cf5000fc
:102bb4000300320030c0b3004047980026023700bb
:102bc4004e089000104178008280fb001040900075
:102bd4000080fb004800dd0001007000e1002000df
:102be400920d0700600798004e089000904178000d
:102bf4008380fb00104090000080fb004800dd0053
:102c040001007000d1002000800d0700ce08900064
:102c1400906098004e099000a24190000382fb004e
:102c2400b24190008381fb00c819dd0084817100ea
:102c340003007800c24190008381fb005241900060
:102c44000281fb004811dd0003017100820078005d
:102c54006e019000030020000001410081814900c1
:102c64004e089000f10f200001026100e040900046
:102c7400e0c0600084c07000614098004812de002b
:102c8400f0409000e0c0600084c070007140980083
:102c9400f10f20000182610080489000e0c06000d4
:102ca40084c07000014898004819de0090489000e4
:102cb400e0c0600082c07000114898004e08900087
:102cc400104178008280fb00104090000080fb00df
:102cd4004800dd0001007000010120004b0d0700d9
:102ce400ce089000806098004e08900090417800d3
:102cf4008380fb00104090000080fb004800dd0052
:102d04000100700061012000480d07006101b80056
:102d14004e089000f10f200001026100c05890009d
:102d2400e0c0600084c07000415898004812de0082
:102d3400d0589000e0c0600084c0700051589800e2
:102d4400f10f200001826100e0589000e0c06000b3
:102d540084c07000615898004819de00f058900053
:102d6400e0c0600082c07000715898004e09900065
:102d7400c25990000382fb00d25990008381fb006a
:102d8400c819dd008481710003007800e2599000c5
:102d94008381fb00725990000281fb004811dd0021
:102da4000301710082007800e00f5000e08f5800aa
:102db40021003a004e089000104178008280fb0008
:102dc400104090000080fb004800dd00010070000e
:102dd40041022000300d07000001be004e089000a3
:102de400f10f200001026100c0589000e0c06000b3
:102df40084c07000415898004812de00d0589000fa
:102e0400e0c0600084c0700051589800f10f2000a9
:102e140001826100e0589000e0c0600084c070004e
:102e2400615898004819de00f0589000e0c0600036
:102e340082c07000715898004e089000e0409000e5
:102e44000181fb00f04090008180fb00c808dd0098
:102e54008280700001027800804890008180fb002d
:102e6400104890000080fb004800dd000100700065
:102e7400800278004e089000006090000081fb0002
:102e8400030020004e0b9000c65b90000784fb00fb
:102e9400d65b90008783fb00c83bdd00888373000a
:102ea40007007800e65b90008783fb00765b900068
:102eb4000683fb004833dd000703730086007800b7
:102ec400009bb90006037800028cb90088037800df
:102ed400070343000010b800010343008600780094
:102ee40004014000858148004e089000f10f200045
:102ef40001026100a0489000e0c0600084c070003e
:102f0400214898004812de00b0489000e0c06000fc
:102f140084c0700031489800f10f200001826100e4
:102f2400c0489000e0c0600084c070004148980030
:102f34004819de00d0489000e0c0600082c07000f4
:102f4400514898004e089000904178008380fb001f
:102f5400104090000080fb004800dd00010070007c
:102f640011012000b10c0700000178004e08900008
:102f7400f10f200081016100a0509000e0c06000ca
:102f840083c07000215098004811de00b0509000ba
:102f9400e0c0600082c07000315098004e0890007c
:102fa400104178008280fb00104090000080fb00fc
:102fb4004800dd0001007000310120009b0c070077
:102fc40001002000008fbe001e00be00e00f500074
:102fd400e08f58000a003a004e08900090417800b3
:102fe4008380fb00104090000080fb004800dd005f
:102ff4000100700001022000a70c0700008fbe0032
:103004004e089000104178008280fb001040900030
:103014000080fb004800dd0001007000b1002000ca
:10302400820c0700700798007e009000e00f5000ab
:10303400050032007e0090006100600000407800ce
:10304400e04f50000300320010c2b3004047980024
:1030540001013700ce089000215090000081fb0050
:10306400315090000080fb004800dd000200700039
:10307400c500dd007e009000008040008000e90073
:103084007e00900080017800110009008380d80040
:1030940001002000000f9800110f98006e009000ae
:1030a4006103b8004e089000006090000081fb00ae
:1030b400030020004e0a9000c45a90000584fb00cf
:1030c400d45a90008582fb00c82add0088827200f1
:1030d40005007800e45a90008582fb00745a900041
:1030e4000482fb004822dd0005027200840078009f
:1030f400009ab90004027800028cb90088027800b2
:10310400050242000010b800010242008400780069
:1031140006014000878148000e0890009e08900038
:1031240002004000838048003e011000ae81180078
:103134000200be00200f9800310f98004e08900046
:10314400106090000080fb00010020000001be0020
:103154002e089000be08900049f507000001be004b
:103164004e089000f10f200001026100c050900051
:10317400e0c0600084c07000415098004812de0036
:10318400d0509000e0c0600084c07000515098009e
:10319400f10f200001826100e0509000e0c0600067
:1031a40084c07000615098004819de00f05090000f
:1031b400e0c0600082c07000715098004e09900019
:1031c400c25190000382fb00d25190008381fb0026
:1031d400c819dd008481710003007800e251900079
:1031e4008381fb00725190000281fb004811dd00d5
:1031f400030171008200780042ff200003002000d8
:10320400820f5000838f580004003e00ce089000c7
:1032140010c0b300a06098001b0037004e09900056
:10322400c25190000382fb00d25190008381fb00c5
:10323400c819dd008481710003007800e251900018
:103244008381fb00725190000281fb004811dd0074
:10325400030171008200780042ff2f000300200068
:10326400820f5000838f580004003e00ce08900067
:1032740020c0b300a060980003003700ce0890007f
:1032840030c0b300a06098004e0890002060900009
:10329400e34f500036003a004e0890009041780009
:1032a4008380fb00104090000080fb004800dd009c
:1032b40001007000c1022000f70b070010628800b3
:1032c400216288004e099000a24990000382fb000d
:1032d400b24990008381fb00c819dd00848171002c
:1032e40003007800c24990008381fb00524990009a
:1032f4000281fb004811dd000301710082007800a7
:103304000e0990009e09900000014100818149004e
:103314004e089000f10f200001026100e048900087
:10332400e0c0600084c07000614898004812de006c
:10333400f0489000e0c0600084c0700071489800bc
:10334400f10f20000182610080509000e0c0600015
:1033540084c07000015098004819de00905090001d
:10336400e0c0600082c07000115098003400370043
:103374006000b80010628800216288004e09900045
:10338400a24990000382fb00b24990008381fb00b4
:10339400c819dd008481710003007800c2499000df
:1033a4008381fb00524990000281fb004811dd003b
:1033b4000301710082007800ce099000235190002f
:1033c4000282fb00335190000281fb004811dd00b2
:1033d400040171004411de000300200000014100db
:1033e400818149004e089000f10f20000102610024
:1033f400e0489000e0c0600084c07000614898001c
:103404004812de00f0489000e0c0600084c0700004
:1034140071489800f10f20000182610080509000f3
:10342400e0c0600084c07000015098004819de00bc
:1034340090509000e0c0600082c07000115098006d
:10344400fe00900000202000808f50000200360013
:1034540010c2b300404798004e08900020609000ce
:10346400e34f50000d0032004e409000e04f5000fa
:10347400b00032005e009000a0c0900090c2b30083
:1034840080cf5000050032005e009000a0c0900084
:1034940080c2b30080cf5000a8003a00de00900044
:1034a400315090000081fb00415090000080fb00ef
:1034b4004800dd0002007000e00f50003a003a00be
:1034c4005e00900040709000e04f500036003a00db
:1034d4005e00900050709000e04f500032003a00bf
:1034e4005e00900060709000e04f50002e003a00a3
:1034f4005e00900070709000e04f50002a003a0087
:103504005e00900000789000e04f500026003a00e2
:103514005e00900010789000e04f500022003a00c6
:103524005e00900020789000e04f50001e003a00aa
:103534005e00900030789000e04f50001a003a008e
:103544005e00900040789000e04f500016003a0072
:103554005e00900050789000e04f500012003a0056
:103564005e00900060789000e04f50000e003a003a
:103574005e00900070789000e04f50000a003a001e
:103584005e009000a0c0900090c2b30080cf5000b5
:10359400070032005e009000a0c0900080c2b3001b
:1035a40080cf50000200320030c0b3004047980082
:1035b4004e409000e04f5000310032003e00900039
:1035c400e00f50002e003a00100020003007980051
:1035d4004e089000104178008280fb00104090005b
:1035e4000080fb004800dd0001007000000278004c
:1035f4004e099000a24190008382fb00b2419000ea
:103604008381fb00c819dd00858171000300780007
:10361400c24190008381fb00524190000281fb0073
:103624004811dd000301710082007800de01900082
:10363400237190008282fb00337190000281fb00b1
:103644004811dd0005017100030020000000410065
:1036540081804900040178009e1b0700e14f50005f
:103664000400320080c0b30046ecb70080c0b30051
:103674003d0037000040eb00404798002c00370025
:103684004e409000e04f50002e0032004e0090005b
:10369400e00f50002d003a00100020004007980071
:1036a4004e089000904178008380fb001040900009
:1036b4000080fb004800dd0001007000000278007b
:1036c4004e099000a24190008382fb00b241900019
:1036d4008381fb00c819dd00858171000300780037
:1036e400c24190008381fb00524190000281fb00a3
:1036f4004811dd000301710082007800660040007b
:10370400e080480004017800721b0700e14f50007c
:103714000400320080c0b30046ecb70080c0b300a0
:10372400110037000040eb00404798000000000003
:1037340016fd3700000000000500370000000000ff
:103744000300370000000000010037000000000003
:103754004e409000e04f5000020032004e40900076
:1037640046ecb7004e4090004f04be000080fa00c3
:10377400000006000600fa00200798006000b80068
:10378400008fbe002e009000200890000100200051
:10379400008fbe001e00be00c000dd00000020003f
:1037a400008fbe002e009000500890000100200001
:1037b4001e1f70001e9770001e00be000080fa00dd
:1037c400000006001000fa006007980071079800d6
:1037d4006e00900090007800110798006e00900031
:1037e40010199000a0199000220798003307980040
:1037f4007e009000100078006102b8001e01900065
:10380400825990000383fb00925990008381fb004e
:10381400c819dd008681710003007800a259900068
:103824008381fb00325990000281fb004811dd00c6
:103834000301710082007800cb09dd004500de0041
:1038440000807100c508de000001be000400be0057
:103854008bf30700104798001e0090002060900032
:103864000080fb00e10f500022003500e20f500001
:103874000d003400e30f50001e003a001e009000bb
:10388400106090009e4090008180fb000080fb004f
:1038940000017800110009008280d8008000fd003a
:1038a40010479800130037001062800021628000e6
:1038b4002e019000be019000800f5100818f5900ad
:1038c4000b0032001e009000106090009e4090009b
:1038d4008180fb000080fb0080017800110009005a
:1038e4008380d8008000fd00104798000100370055
:1038f400000000002e019000be0190001e00900008
:10390400880a070040079800510798001e0090009d
:10391400104178008280fb00104090000080fb0082
:103924004800dd0001007000000278001e40900095
:103934000081fb00030020004e009000de00900098
:1039440002004000838048008041eb0004017800bd
:10395400121d0700e04f500003003a000040eb0046
:10396400004f78000200370010c0b300004f780009
:103974001e4078000080fa00000006001400fa00df
:1039840070079800010f9800120f98000000eb00d8
:10399400400798001e089000206090000080fb0003
:1039a400e10f50000a003200e30f500010003a000b
:1039b400f0ff2f00f1ff2000200798003107980046
:1039c40080ff2f00f1ff2000008fbe0010003700a1
:1039d400f0ff2f0001002000200798003107980015
:1039e40080ff200001002000008fbe000800370087
:1039f400f0ff2f00010020002007980031079800f5
:103a040080ff2f0001002000008fbe000000000096
:103a14007e0090008e089000e00f5000e08f580068
:103a2400070032007e0190008e09900010002000f3
:103a340001002000800f5100818f59003b003a00a3
:103a440020002000400798003b0037007e019000d2
:103a54008e0990001e0890005f1007005007980020
:103a6400610798005e019000ee0190002e00900026
:103a7400be009000800f5100818f590003003a006e
:103a84001000200040079800280037005e009000d6
:103a9400ee009000e00f5000e08f58000700320065
:103aa4005e019000ee019000100020000100200053
:103ab400800f5100818f590003003a00200020003c
:103ac40040079800190037005e009000ee00900057
:103ad400be0f5000ae8f58000200390020002000b5
:103ae400400798008040eb006022b8007e019000ff
:103af4008e0990001e0890003f1207000001be00ce
:103b04002e009000be009000800f5100818f59005c
:103b140002003a0010002000400798005e00900068
:103b2400ee00900070079800010f98004e0090007e
:103b3400e00f5000c5ff320011c0b3006022b8008e
:103b44006011b8001e0890002b1207004e00900070
:103b5400e20f500002003a0010c0b3000100370029
:103b64000040eb000080fa00000006001e00fa008e
:103b7400400f9800510f9800425f98004e08900043
:103b840090007800610798004e0890007011900032
:103b94008019900072079800030f98004e08900057
:103ba40010199000a019900032079800430798005c
:103bb4006e019000825990000382fb00925990009c
:103bc4008381fb00c819dd00848171000300780043
:103bd400a25990008381fb00325990000281fb00be
:103be4004811dd000301710082007800cb09dd007b
:103bf4004500de0000807100c508de0020579800f3
:103c04005e089000900078002e5090000080fb0029
:103c140000017800110009008280d800204f98002c
:103c24006e009000206090000080fb00e30f5000c5
:103c34000f003a006e00900010609000ae489000b3
:103c44008180fb000080fb008001780011000900e6
:103c54008380d8008000fd00204f980080ff2f0053
:103c6400f1ff200010079800210798001400370086
:103c74007e0090008e089000e00f5000e08f580006
:103c84000a0032006e00900010609000ae48900070
:103c94008180fb000080fb00000178001100090016
:103ca4008280d8008000fd00204f980080ff2f0004
:103cb4000100200010079800210798000000000070
:103cc4004e589000e04f500005003a005e08900006
:103cd400100078006f006000e00f5000c4003a004c
:103ce4002e489000e04f500006003a005e08900015
:103cf400900078002e5090000080fb00808f5000d0
:103d0400030031004e589000e04f50003200320062
:103d14007e0090008e089000e00f5000e08f580065
:103d240004003a006000b80030079800410798008a
:103d3400290037004e589000e04f50000e0032002a
:103d44005e089000100178002e5090008080fb00e7
:103d54006e009000106090000080fb000088b900a5
:103d64000000780080017800110009000381d80068
:103d7400304f98001300370010c0b300304f980044
:103d8400100037003e019000ce0190006e009000bc
:103d9400910f070030079800410798003e019000fa
:103da400ce0190001e009000ae009000800f5100e4
:103db400818f5900070031003e4890000040e9001f
:103dc400304f98003e489000e04f5000edff3a001d
:103dd40001003700000000003e019000ce01900079
:103de4001e009000ae009000800f5100818f59009a
:103df4007a0031004e0890003e019000ce01900000
:103e040012189800231898003e019000ce019000eb
:103e14006e00900043090700200f9800310f9800ae
:103e240010628000216280003e019000ce0190006b
:103e3400800f5100818f590020003a002e489000d5
:103e44000081fb00030020002e089000be089000b3
:103e540002014000838148006e029000e44a900011
:103e64000583fb00f44a90008582fb00c82add002c
:103e74008682720005007800845290008582fb00df
:103e8400145290000482fb004822dd0005027200f7
:103e940084007800800f5100818f59000700390099
:103ea4006e00900020609000e34f50000300320049
:103eb4000000eb00000f780062003700a4cdbf00c3
:103ec400e04f500005003200310b0700e04f500076
:103ed400020032000000eb005b0037000000eb0042
:103ee400f06c88000040eb00a6edb7006e00900077
:103ef400904178008380fb00104090000080fb001c
:103f04004800dd0001007000000278002e48900097
:103f14000081fb00030020002e089000be089000e2
:103f240002004000838048000401780069190700fa
:103f3400e14f5000030032000000eb00000f780056
:103f4400210037004e589000e04f50001600320018
:103f54006e009000104178008280fb0010409000b9
:103f64000080fb004800dd00010070008000780044
:103f74005e089000100178002e5090000080fb0035
:103f840080017800811f7800110009000381d800a6
:103f94000001780001007800cf0078004500dd00c2
:103fa400008f4000080037006e0090001041780038
:103fb4008280fb00104090000080fb004800dd0080
:103fc40001007000000f78000080eb008080eb009f
:103fd400006d8800116d88001a00370010c0b3000e
:103fe400a5edb7000000eb00000f780015003700c6
:103ff4006e009000904178008380fb001040900098
:104004000080fb004800dd000100700080007800a3
:104014005e089000100178002e5090000080fb0094
:1040240080017800811f7800110009000381d80005
:104034000001780001007800cf0078004500dd0021
:10404400008f40001e0078000080fa000000060087
:104054000a00fa00100798002107980062479800a8
:10406400430798000000eb00000f78000040eb00cd
:1040740046ecb7002e0090008000eb0001087800a9
:10408400ae0090001e00900058000700e04f500062
:1040940010003a006e419000ae0090001e009000a7
:1040a400d80007000080fb00000f78001e00780095
:1040b400e00f500009003a004e009000e00f50005d
:1040c400060032001e0090000a000700000f78006e
:1040d4000200370040012000000f78001e00780025
:1040e4000040780046ecb7001e0078000080fa001b
:1040f400000006001000fa00700798007e0090008f
:104104004010900060079800680047008000780025
:104114007e0090008b070700000f78001e007800d7
:10412400e00f50002e003a006c0047008000780039
:104134007e009000c0030700100798004e00900016
:10414400de009000800078001e0090005108980066
:104154004e019000de01900000002000f1ff2000dd
:1041640002027800030178008001780001007800e1
:10417400030262000000610001002000c000dd00b5
:10418400000020000001be006120b80000017100a1
:104194008181710022079800330798002e00900057
:1041a400be0090004008de000100200020079800b7
:1041b40031079800ae0090001e009000210898007e
:1041c4006c004700800078007e0090007dfd0700b1
:1041d400e14f50000200320090002000000f7800f0
:1041e4001e0078000080fa00000006001200fa00a9
:1041f40070079800010f980010c0b300004f7800ba
:104204000040eb00204798000e08900090007800d2
:10421400210798007e009000801890007010900094
:104224007e019000101998002119980012c0b30063
:104234008e0890007e0090004cfe07003007980026
:104244003e009000e00f50006800320010c0b30040
:10425400004f9800620037000040eb0010479800c0
:104264000e08900010017800220798000041eb002e
:104274008e0890007e0090003cfe070030079800f6
:104284003e009000e00f5000030032003e0090001a
:1042940010407800204798000e0890001000780025
:1042a4008000e8000e089000010878003e009000ad
:1042b400e00f50000d0032002e409000fb4f4000f4
:1042c400030032002e409000e04f500007003a00f7
:1042d4001e4090000040e800104798009e40900067
:1042e4000e48900080cf5000e0ff39003e0090005f
:1042f400e00f500034003a007e0090001019900046
:10430400a01990005207980063079800106280007b
:10431400216280005e019000ee019000800f510048
:10432400818f590018003a007e0090001000780038
:1043340020609000e34f50000300320020c0b3001f
:10434400004f7800260037007e0090005e01900048
:10435400ee019000320098004300980011c0b300b1
:104364007e0090002b010700f54f500003003a0037
:1043740020c0b300004f7800190037000040eb0064
:10438400004f7800160037007e0090005e01900018
:10439400ee019000320098004300980011c0b30071
:1043a4007e0090001b010700f54f500003003a0007
:1043b40020c0b300004f7800090037000040eb0034
:1043c400004f7800060037009e4090000e48900091
:1043d40080cf500002003a000040eb00004f78000c
:1043e4001e407800e14f50009bff32000e08900001
:1043f400ae019000030878001e4078000080fa00a7
:10440400000006000a00fa0020079800310798000f
:10441400024f98000040eb00004f78002e009000ff
:1044240080189000701090002e01900010199800d0
:104434002119980012c0b300be0090002e00900015
:10444400cafd0700100798001e009000e00f5000fe
:1044540002003a00b0c1b3004e0037002e009000b5
:10446400fc0040001e009000b2002000fdf1070097
:104474000e489000f24f500004003a009e00900055
:1044840000c1b300b0489800030037009e009000bc
:1044940000c2b300b04898009e0090000040eb00ba
:1044a400c04898001e0090008000eb00210898008e
:1044b4001e0090008000eb00510898001e0190003f
:1044c4006000b80060099800710998003300070083
:1044d40037ccbf009e009000d0489800c161800096
:1044e4001e00900071009800d16180001e009000b1
:1044f40001089800e16180001e00900011089800f6
:10450400f16180001e009000310898000162800073
:104514001e009000410898001e009000f0089000d2
:10452400600890002e01900010099800210998005d
:104534001e009000f00090002e00900041089800aa
:104544001e009000800890002e00900051089800f2
:104554001e009000304890008080fb002e009000e8
:10456400611098003e009000900078002e009000aa
:1045740041109800be0090002e00900091fc0700ae
:10458400e14f50000200320090c0b300004f7800a9
:104594001e4078000080fa00000006000e00fa00b9
:1045a400313180000010200000806000e00f5000d6
:1045b4000300320010c0b3003047980002003700f7
:1045c4000040eb003047980031318000002020008b
:1045d40000806000e00f50000300320010c0b30000
:1045e40020479800020037000040eb002047980065
:1045f4002706a8002726a80020318000200798005d
:104604002031800030079800203180004007980056
:1046140020318000500798003e409000e14f500048
:1046240001003a002706a8002e409000e14f5000f8
:1046340001003a002726a8000000eb00000f7800d4
:104644002e0090006f0060001e0f4000ae0090002e
:10465400000f2000008060004400de006a00b90002
:10466400000078001e0f40001e007800740f400008
:104674001e0078004900dd0060079800be0090002d
:104684000000210000806000e00f500003003200b1
:10469400a0002000000f7800020037000000eb00ab
:1046a400000f7800be00900000f020000080600041
:1046b4004800de001e0f40001e0078004500dd00ab
:1046c400000f78006e0090001e00700060079800d4
:1046d400be009000000f2000008060004400de0057
:1046e400000f78001e0078006a00b900000078000e
:1046f400000f78003e0090006f0060001e0f400025
:104704006e0090001e007000600798006e0090001c
:10471400d06188006e009000006288006e009000f6
:10472400e0618800ce009000000f2000008060004f
:104734004400de006a00b90000007800000f780031
:104744004e0090006f0060001e0f40001e007800b5
:104754004b00dd00600798005e0090004c00de0016
:104764006a00b90000007800000f7800de009000b5
:1047740000f02000008060004800de001e0f4000b2
:104784001e0078004500dd00ee00900000807000ff
:1047940060079800de009000000f20000080600099
:1047a4004400de006a00b90000007800000f7800c1
:1047b4005e0090006f0060001e0f40001e00780035
:1047c4006100600000407800e04f500003003200b8
:1047d40040c6b30037ecb700020037000040eb00de
:1047e40037ecb7001e0078000000d100000f7800fd
:1047f4006e0090001e007000600798006e0090002c
:10480400c06188006e009000f06188000080fa00aa
:10481400000006000e00fa0050079800414f98006f
:104824005e009000100f78005e0090003001900050
:10483400c001900012079800230798005e009000c2
:104844004400070010079800210798001e009000fc
:10485400ae009000e00f5000e08f580002003a00d4
:1048640050c1b300390037001e007800206090006a
:10487400e14f500008003a008040eb0084ff200024
:10488400050020001e019000ae0190001e0078007b
:10489400d90e0700130037001e0078002060900036
:1048a400e24f500008003a008040eb0084ff2f00e4
:1048b400050020001e019000ae0190001e0078004b
:1048c400cd0e0700070037008040eb0084ff2f0067
:1048d400f5ff20001e019000ae0190001e0078003c
:1048e400c50e07005e00900030019000c0019000ea
:1048f40032079800430798008040eb001e029000a6
:10490400ae0290003e019000ce0190001e0078009f
:10491400b90e07005e0090001e019000ae019000e9
:1049240032009800430098004e489000e14f500038
:1049340005003a001e019000ae0190001e007800b0
:10494400d8050700010037000040eb000080fa00a2
:10495400000006001800fa00300f98006000b8004c
:1049640060079800710798003e0890009000780056
:10497400010f98003e08900030019000c0019000a3
:10498400028fbe000e089000206090000080fb00a3
:10499400e10f50000b003200e30f500012003a0008
:1049a40070ff2f00f1ff20002007980031079800c6
:1049b400f0ff2f00f1ff20004007980051079800f6
:1049c4001200370070ff200001002000200798002b
:1049d40031079800f0ff2f000100200040079800e5
:1049e400510798000900370070ff2f0001002000d4
:1049f4002007980031079800f0ff2f0001002000e5
:104a04004007980051079800000000001e01be00f6
:104a14001000200001002000800f5100818f5900f8
:104a240003003e002000200001002000008fbe0093
:104a34001e00be00100f9800210f98001e01be003a
:104a44000e089000640c07003f0037001e01be00f2
:104a54000e089000600c070060079800710798002a
:104a64006e019000fe0190004e009000de00900068
:104a7400800f5100818f590003003a006000b80094
:104a8400008fbe00360037006e009000fe009000dc
:104a9400e00f5000e08f5800300032001200200078
:104aa400030020001e0f41005e9749006e01900034
:104ab400fe0190002e009000be009000800f510077
:104ac400818f5900140032000e099000c2519000e9
:104ad4000382fb00d25190008381fb00c819dd00e2
:104ae4008481710003007800e25190008381fb000f
:104af400725190000281fb004811dd000301710036
:104b04008200780062004000e0804800be0f500040
:104b1400ae8f580003003e0020002000010020005a
:104b2400008fbe001e089000ae0890001e01be005b
:104b3400800f5100818f590003003a006000b800d3
:104b4400008fbe00060037001e00be00e00f5000bc
:104b5400e08f5800bdff3a0001003700000000005c
:104b64001e00be000080fa00000006000a00fa00e1
:104b74004007980080042000100798000040eb00d4
:104b840046ecb7004e0090004010900030079800ab
:104b94004e0090003008900061006000e00f50006b
:104ba40052003200a4cdbf00e04f50000700320095
:104bb400f7070700e04f50000400320090c0b30034
:104bc40046ecb7000080eb006b0037004e0090000d
:104bd4001000780011c0b3006022b8006011b80062
:104be400050e07006000b800c06c8800d16c880016
:104bf4004e009000c0009000300090004e019000e4
:104c0400120278000001be0004007800f20b0700d5
:104c140066004700800078004e00900006010700ff
:104c2400200798002e009000e00f500006003a0084
:104c3400b0c1b30046ecb7000080eb001007980049
:104c44001e0090004c00370054fe0700f161800004
:104c54002e00900031089800016280002e00900020
:104c6400410898004e009000a008900010089000a1
:104c74002e01900060099800710998004e00900080
:104c84006010900000407800ae009000b04898009a
:104c940066004700800078004e009000c9fa0700c3
:104ca400e04f5000080032006600470080007800a2
:104cb4004e009000e0000700200798000000eb0081
:104cc400100798000400370090c0b30046ecb7000a
:104cd4000080eb00100798004e009000300990000f
:104ce400e1ff2f0081006100310898004e00900020
:104cf40030099000d1ff2f00810061003108980035
:104d04000000eb00000f78000f0037009e007800d1
:104d1400600320000088b9008000780000c02000f3
:104d2400808040004e009000808f500005003a00c3
:104d340060c320009e00400010c0b300804878008b
:104d4400040037001e0fe8001e007800e00f50003a
:104d5400eeff32000000eb00400798009e00900038
:104d640080042000808f500002003a000000eb0015
:104d7400100798001e0090000080fa000000060052
:104d84000c00fa0040079800510798000040eb001f
:104d9400404798005e009000100078006f006000ab
:104da400e00f500010003a005e0090001000780000
:104db400e00f50000c0032004e009000801890006c
:104dc400701090004e01900010199800211998005d
:104dd40012c0b300de0090004e00900063fb070099
:104de400000f7800050037000041eb00de00900062
:104df4004e0090005dfb0700000f78001e00780055
:104e0400e00f500003003a0020c0b3003047980080
:104e1400860037001e007800104078005047980044
:104e24005e409000fb4f400003003a0010c0b30006
:104e3400304798007d0037005e409000e04f5000fe
:104e440003003a0020c0b3003047980077003700d1
:104e54001e007800b0489000514798000040eb00d5
:104e640020479800150037002e4090000080fb007a
:104e74009e00780061407800604798006e40900082
:104e84000080fb00f7ed0700604798004e4090005b
:104e94008080fb006e4090004e0190008100410034
:104ea400c05898004e4090000040e80040479800e9
:104eb4002e4090000040e800204798002e409000cb
:104ec400e74f5000e8ff36001e007800b04890001d
:104ed400514798001e0078000048900060479800f1
:104ee4000040eb0020479800160037002e40900049
:104ef4000080fb009e00780068004000614078005c
:104f0400604798006e4090000080fb00d5ed0700dc
:104f1400604798004e4090008080fb006e409000f7
:104f24004e01900081004100c05898004e4090000e
:104f34000040e800404798002e4090000040e80000
:104f4400204798002e409000e24f5000e7ff3600c3
:104f54005e009000900078004e0090004110980090
:104f64001e00780010407800504798005e40900082
:104f7400fb4f400003003a0010c0b30030479800d4
:104f8400020037000040eb00304798001e00780014
:104f9400f0089000600890004e01900010099800fd
:104fa400210998001e007800f2f907004e019000d4
:104fb40010019800210198001e007800b04890006c
:104fc400514798005e4090008080fb004e009000a6
:104fd400611098005e4090000080fb00700060004b
:104fe400e00f5000090032001e007800f00090002d
:104ff4004e009000410898001e0078008008900040
:105004004e00900051089800080037001e007800f8
:10501400b00890004e009000410898001e007800ef
:10502400c00890004e009000510898003e40900047
:105034000080fa00000006000800fa00200798002b
:10504400310798002e009000801890007010900096
:105054002e019000101998002119980012c0b30075
:10506400be0090002e009000c0fa0700000f7800e8
:105074001e007800e00f500002003a000000eb0030
:105084002b0037001e00780010407800204798005d
:105094002e409000e04f500002003a000000eb0068
:1050a400000f78001e007800e00f50001f0032004f
:1050b4002e409000fb4f400003003a000000eb003c
:1050c400000f7800190037001e007800b0489000e7
:1050d40021479800120037003e009000100078002d
:1050e4008000e8003e009000010878000041eb00d9
:1050f400be0090002e0090009cfa0700000f78007c
:105104001e007800e00f500002003a000000eb009f
:10511400070037001e007800b0489000214798002f
:105124002e409000ef4f5000ebff32001e0078003d
:105134000080fa00000006001600fa00000f980034
:10514400110f9800425798000000eb00000f780000
:105154006000b80010079800210798001000200094
:10516400400798000e0890009000780051079800be
:1051740010c0b3006047980010c0b30046ecb700fd
:10518400380037000e0890008018900070109000ce
:105194000e099000101998002119980012c0b3004c
:1051a4009e0890000e08900070fa070060079800af
:1051b4006e009000e00f500002003a00b0012000a1
:1051c4004b0037006e00900010407800604f98004c
:1051d4006e009000e00f5000060032006e48900010
:1051e400e04f5000030032006e489000fb4f400037
:1051f40003003a00b0002000000f780023003700bd
:10520400ee00900050ceb300804878009e089000d5
:105214000e0890006bf90700e04f500003003a00bd
:1052240010002000000f7800180037004e00900096
:10523400e00f5000060032006e0090004df90700a8
:1052440010079800210798000000eb004007980021
:105254001e089000100078008000e9001e089000ed
:10526400010878006e4090000080fb000000ea0016
:105274004f00de0000407800ee4090008140e900dd
:1052840061479800e04f5000beff3a001e007800ce
:10529400e00f500015003a00106280002162800087
:1052a4001e019000ae019000800f5100818f5900c3
:1052b4000b0032004e509000e04f500008003200c6
:1052c4005e0190001e009000ae009000abf9070054
:1052d4000080fb000000e9004f00de00000f7800b2
:1052e4001e0078000040780046ecb7001e007800ed
:1052f4000080fa00000006007600fa00103f9800d3
:10530400213f98000040eb0046ecb700d0160700a0
:10531400e04f50000400320080c1b30046ecb700f7
:105324000080eb006600370066004700ae3890004e
:10533400e9020700660047000041eb0080007800a6
:105344001e38900062070700e04f500004003a0046
:1053540020c1b30046ecb7000080eb0058003700d2
:105364000000eb0070179800406d800080189000da
:1053740070109000201f9800311f9800406d80002d
:10538400a018900010189000401f9800511f98001a
:10539400e6004700c00320000e004000ce020700d4
:1053a400e6004700c00320000e0040008041eb00ef
:1053b40012c0b3001af20700eb0f50003b003a0092
:1053c4002e38900040109000200798006400470099
:1053d400800078002e38900017ff0700100798000f
:1053e4000040eb00004f7800230037001e40780097
:1053f4008080fb001e4178000280fb007c0040009e
:1054040000004700604090002e3990008100410068
:10541400c05898001e407800e74f50000a003e0034
:105424001e4078008080fb001e4178000280fb0053
:105434007c00400000004700604090001e01900086
:1054440000f178000b0037009e4078000180fb00db
:10545400e80050001e4178000280fb007c00400000
:1054640000004700604090001e0190008100410050
:10547400804898001e4fe8001e407800ea4f500014
:10548400daff360064004700800078002e38900070
:10549400ccf80700e04f500008003a0090c0b30079
:1054a40046ecb7000080eb000500370010c1b300e4
:1054b40046ecb7000080eb00010037000000eb0071
:1054c4000080fa00000006000e00fa005007980061
:1054d400610798006e0090001040780060479800c3
:1054e4005b160700e04f50000c003200ee409000c5
:1054f40020c7b30080cf500008003200ee40900077
:1055040020c5b30080cf50000400320080c1b30036
:1055140046ecb7000000eb00ed0137000000eb00a3
:10552400000f78000000eb0010079800150037000a
:105534009e00900060c3200000804000104078006e
:10554400e04f50000c0032009e00900060c3200029
:10555400808040000040eb00804878009e0090006e
:10556400600320000088b9008000780000c020009b
:10557400008f4000060037001e0090000000e80085
:10558400100798001e009000e00f5000e8ff340060
:105594001e007800e00f500004003a0000c2b3007f
:1055a40046ecb7000000eb00c90137000041eb00f6
:1055b4009e0078005e009000c5060700e04f500092
:1055c40009003a009e00900060c3200080804000e3
:1055d40010c0b3008048780020c1b30046ecb70087
:1055e4000000eb00ba0137001e00780001cf200054
:1055f400010878001e0178006000b80010019800ce
:10560400210198001e0178006000b8003001980064
:10561400410198001e0078008000eb0041109800c2
:105624001e007800010220006110980010628000c2
:10563400216280001e017800701198000119980001
:1056440010628000216280001e0178001019980009
:10565400211998009e00780040c820001e0207000f
:105664008041eb0012c0b30041c820001e00780046
:105674006bf10700e00f500017013a006e409000f4
:105684000080fb006101b900f0fb2f00f1ff2f0047
:1056940002004000838048006203200003002000d1
:1056a400820f5000838f580006013e000060010005
:1056b4006e00370003013700020137000101370093
:1056c40000013700ff003700fe003700fd003700ff
:1056d400fc003700fb003700fa003700f900370000
:1056e400f8003700f7003700f6003700f500370000
:1056f400f4003700d1003700f2003700f100370022
:10570400f0003700ef00370020003700ed003700cd
:10571400ec003700eb003700ea003700e9003700ff
:10572400e8003700e7003700e6003700e5003700ff
:105734004e003700e3003700e2003700e100370095
:10574400e0003700df003700de003700dd003700ff
:10575400dc003700db003700da003700d9003700ff
:10576400d8003700d7003700d6003700d5003700ff
:10577400d4003700b1003700d2003700d100370021
:10578400d0003700cf003700000037001e0078003b
:1057940040109000400798006800470012c0b30012
:1057a400800078001e00780063fe07002007980040
:1057b4002e009000e00f500012013a0068004700ec
:1057c400130020000041eb00800078001e007800e8
:1057d4001ffa0700200798002e009000e00f5000e9
:1057e4000a013a006800470072c7b30080007800dd
:1057f4001e0078000ff20700200798001e007800b2
:105804006010900070006000e00f5000040032004f
:10581400f0c1b30046ecb700f00f20002007980059
:105824002e009000e00f5000fa003a002100200002
:105834006011b8001e007800a80707002007980030
:105844006e0090000000e80090407800b0c2b30001
:1058540080cf5000f1003a001e007800b00890009c
:105864000110a00031089800030137001e007800e1
:10587400a008900010089000e00f5000e08f58003e
:10588400310032001e00780040109000400798005c
:105894006800470072c7b300800078001e007800db
:1058a400e4f10700200798001e00780060109000c3
:1058b40070006000e00f500004003200f0c1b3003b
:1058c40046ecb700f00f2000200798002e0090004f
:1058d400e00f5000d3003a00210020006011b8000e
:1058e4001e0078007d070700200798002e00900016
:1058f400e00f500003003200a0c1b30046ecb70033
:10590400060037001e007800c000900030009000b0
:105914000001be0000cf2000af0807006e00900019
:105924000000e80090407800b0c2b30080cf50007f
:10593400be003a001e007800b00890000110a000dc
:1059440031089800cc0037001e0078004010900009
:10595400400798006800470012c0b3008000780038
:105964001e007800f4fd0700200798002e00900028
:10597400e00f5000af003a00680047001300200019
:105984000041eb00800078001e007800b0f90700a9
:10599400200798002e009000e00f5000a7003a0066
:1059a4006800470072c7b300800078001e007800ca
:1059b400a0f10700200798001e00780060109000f6
:1059c40070006000e00f500004003200f0c1b3002a
:1059d40046ecb700f00f2000200798002e0090003e
:1059e400e00f500097003a00210020006011b80039
:1059f4001e00780039070700200798002e00900049
:105a0400e00f500002003200a0c1b30046ecb70022
:105a14006e0090000000e80090407800b0c2b3002f
:105a240080cf500089003a001e007800b008900032
:105a34000110a000310898008f0037001e00780084
:105a440040109000400798006800470022c7b30048
:105a5400800078001e00780076f107002007980087
:105a64002e009000e00f50007a003a006e00900083
:105a74000000e80090407800b0c2b30080cf50002e
:105a840076003a001e007800c000900030009000bc
:105a94000001be0000cf20004f0807001e00780060
:105aa4006010900070006000e00f50006d003a003c
:105ab4001e007800b00890000100a0003108980092
